{
  "contractName": "Lottery",
  "abi": [
    {
      "inputs": [],
      "stateMutability": "nonpayable",
      "type": "constructor"
    },
    {
      "inputs": [
        {
          "internalType": "address",
          "name": "have",
          "type": "address"
        },
        {
          "internalType": "address",
          "name": "want",
          "type": "address"
        }
      ],
      "name": "OnlyCoordinatorCanFulfill",
      "type": "error"
    },
    {
      "anonymous": false,
      "inputs": [
        {
          "indexed": false,
          "internalType": "address",
          "name": "buyer",
          "type": "address"
        },
        {
          "indexed": false,
          "internalType": "uint256",
          "name": "amount",
          "type": "uint256"
        }
      ],
      "name": "TicketsBought",
      "type": "event"
    },
    {
      "anonymous": false,
      "inputs": [
        {
          "indexed": false,
          "internalType": "address",
          "name": "winner",
          "type": "address"
        },
        {
          "indexed": false,
          "internalType": "uint256",
          "name": "earnedAmount",
          "type": "uint256"
        }
      ],
      "name": "WinnerElected",
      "type": "event"
    },
    {
      "inputs": [],
      "name": "currentDraw",
      "outputs": [
        {
          "internalType": "uint32",
          "name": "",
          "type": "uint32"
        }
      ],
      "stateMutability": "view",
      "type": "function",
      "constant": true
    },
    {
      "inputs": [],
      "name": "ownerFeePercentage",
      "outputs": [
        {
          "internalType": "uint256",
          "name": "",
          "type": "uint256"
        }
      ],
      "stateMutability": "view",
      "type": "function",
      "constant": true
    },
    {
      "inputs": [
        {
          "internalType": "uint256",
          "name": "requestId",
          "type": "uint256"
        },
        {
          "internalType": "uint256[]",
          "name": "randomWords",
          "type": "uint256[]"
        }
      ],
      "name": "rawFulfillRandomWords",
      "outputs": [],
      "stateMutability": "nonpayable",
      "type": "function"
    },
    {
      "inputs": [],
      "name": "requestRandomWords",
      "outputs": [],
      "stateMutability": "nonpayable",
      "type": "function"
    },
    {
      "inputs": [
        {
          "internalType": "uint256",
          "name": "",
          "type": "uint256"
        }
      ],
      "name": "s_randomWords",
      "outputs": [
        {
          "internalType": "uint256",
          "name": "",
          "type": "uint256"
        }
      ],
      "stateMutability": "view",
      "type": "function",
      "constant": true
    },
    {
      "inputs": [],
      "name": "s_requestId",
      "outputs": [
        {
          "internalType": "uint256",
          "name": "",
          "type": "uint256"
        }
      ],
      "stateMutability": "view",
      "type": "function",
      "constant": true
    },
    {
      "inputs": [],
      "name": "ticketPrice",
      "outputs": [
        {
          "internalType": "uint256",
          "name": "",
          "type": "uint256"
        }
      ],
      "stateMutability": "view",
      "type": "function",
      "constant": true
    },
    {
      "inputs": [
        {
          "internalType": "uint256",
          "name": "price",
          "type": "uint256"
        }
      ],
      "name": "setTicketPrice",
      "outputs": [],
      "stateMutability": "nonpayable",
      "type": "function"
    },
    {
      "inputs": [
        {
          "internalType": "uint256",
          "name": "fee",
          "type": "uint256"
        }
      ],
      "name": "setOwnerFeePercentage",
      "outputs": [],
      "stateMutability": "nonpayable",
      "type": "function"
    },
    {
      "inputs": [
        {
          "internalType": "uint256",
          "name": "amount",
          "type": "uint256"
        }
      ],
      "name": "buyTickets",
      "outputs": [],
      "stateMutability": "payable",
      "type": "function",
      "payable": true
    },
    {
      "inputs": [],
      "name": "getOwnerTicketsCount",
      "outputs": [
        {
          "internalType": "uint256",
          "name": "",
          "type": "uint256"
        }
      ],
      "stateMutability": "view",
      "type": "function",
      "constant": true
    },
    {
      "inputs": [],
      "name": "getTotalValue",
      "outputs": [
        {
          "internalType": "uint256",
          "name": "",
          "type": "uint256"
        }
      ],
      "stateMutability": "view",
      "type": "function",
      "constant": true
    }
  ],
  "bytecode": "0x60a0604052736168499c0cffcacd319c818142124b7a15e857ab600260006101000a81548173ffffffffffffffffffffffffffffffffffffffff021916908373ffffffffffffffffffffffffffffffffffffffff1602179055507301be23585060835e02b77ef475b0cc51aa1e0709600360006101000a81548173ffffffffffffffffffffffffffffffffffffffff021916908373ffffffffffffffffffffffffffffffffffffffff1602179055507fd89b2bf150e3b9e13446986e571fb9cab24b13cea0a43ea20a6049a85cc807cc60001b600455620186a0600560006101000a81548163ffffffff021916908363ffffffff1602179055506003600560046101000a81548161ffff021916908361ffff1602179055506001600560066101000a81548163ffffffff021916908363ffffffff1602179055506000600860146101000a81548163ffffffff021916908363ffffffff160217905550655af3107a40006009556002600a5534801561017657600080fd5b50610633600260009054906101000a900473ffffffffffffffffffffffffffffffffffffffff168073ffffffffffffffffffffffffffffffffffffffff1660808173ffffffffffffffffffffffffffffffffffffffff168152505050600260009054906101000a900473ffffffffffffffffffffffffffffffffffffffff166000806101000a81548173ffffffffffffffffffffffffffffffffffffffff021916908373ffffffffffffffffffffffffffffffffffffffff160217905550600360009054906101000a900473ffffffffffffffffffffffffffffffffffffffff16600160006101000a81548173ffffffffffffffffffffffffffffffffffffffff021916908373ffffffffffffffffffffffffffffffffffffffff16021790555033600860006101000a81548173ffffffffffffffffffffffffffffffffffffffff021916908373ffffffffffffffffffffffffffffffffffffffff16021790555080600160146101000a81548167ffffffffffffffff021916908367ffffffffffffffff1602179055505060805161121661032460003960008181610318015261036c01526112166000f3fe6080604052600436106100a75760003560e01c806397ba287c1161006457806397ba287c1461019b578063c365a665146101c6578063caa648b4146101ef578063e0c862891461021a578063e89e106a14610231578063f6eaffc81461025c576100a7565b80631209b1f6146100ac57806315981650146100d75780631cb398c2146101005780631fe543e31461012b5780632f3666371461015457806389741dc614610170575b600080fd5b3480156100b857600080fd5b506100c1610299565b6040516100ce9190610b81565b60405180910390f35b3480156100e357600080fd5b506100fe60048036038101906100f99190610bdc565b61029f565b005b34801561010c57600080fd5b50610115610310565b6040516101229190610b81565b60405180910390f35b34801561013757600080fd5b50610152600480360381019061014d9190610d62565b610316565b005b61016e60048036038101906101699190610bdc565b6103d6565b005b34801561017c57600080fd5b506101856105d8565b6040516101929190610b81565b60405180910390f35b3480156101a757600080fd5b506101b0610648565b6040516101bd9190610ddd565b60405180910390f35b3480156101d257600080fd5b506101ed60048036038101906101e89190610bdc565b61065e565b005b3480156101fb57600080fd5b506102046106dc565b6040516102119190610b81565b60405180910390f35b34801561022657600080fd5b5061022f6106e4565b005b34801561023d57600080fd5b50610246610836565b6040516102539190610b81565b60405180910390f35b34801561026857600080fd5b50610283600480360381019061027e9190610bdc565b61083c565b6040516102909190610b81565b60405180910390f35b60095481565b600860009054906101000a900473ffffffffffffffffffffffffffffffffffffffff1673ffffffffffffffffffffffffffffffffffffffff163373ffffffffffffffffffffffffffffffffffffffff16146102f957600080fd5b6000811161030657600080fd5b8060098190555050565b600a5481565b7f000000000000000000000000000000000000000000000000000000000000000073ffffffffffffffffffffffffffffffffffffffff163373ffffffffffffffffffffffffffffffffffffffff16146103c857337f00000000000000000000000000000000000000000000000000000000000000006040517f1cf993f40000000000000000000000000000000000000000000000000000000081526004016103bf929190610e39565b60405180910390fd5b6103d28282610860565b5050565b601481106103e357600080fd5b6028600c6000600860149054906101000a900463ffffffff1663ffffffff16815260200190815260200160002060003373ffffffffffffffffffffffffffffffffffffffff1673ffffffffffffffffffffffffffffffffffffffff16815260200190815260200160002054111561045957600080fd5b600954816104679190610e91565b341461047257600080fd5b60005b8181101561051c57600b6000600860149054906101000a900463ffffffff1663ffffffff168152602001908152602001600020339080600181540180825580915050600190039060005260206000200160009091909190916101000a81548173ffffffffffffffffffffffffffffffffffffffff021916908373ffffffffffffffffffffffffffffffffffffffff160217905550808061051490610eeb565b915050610475565b5080600c6000600860149054906101000a900463ffffffff1663ffffffff16815260200190815260200160002060003373ffffffffffffffffffffffffffffffffffffffff1673ffffffffffffffffffffffffffffffffffffffff16815260200190815260200160002060008282546105959190610f33565b925050819055507fb24ee662b0a257d0321d324e737d2507fbe45df8af8d0da951f630f3754eb6a033826040516105cd929190610f89565b60405180910390a150565b6000600c6000600860149054906101000a900463ffffffff1663ffffffff16815260200190815260200160002060003373ffffffffffffffffffffffffffffffffffffffff1673ffffffffffffffffffffffffffffffffffffffff16815260200190815260200160002054905090565b600860149054906101000a900463ffffffff1681565b600860009054906101000a900473ffffffffffffffffffffffffffffffffffffffff1673ffffffffffffffffffffffffffffffffffffffff163373ffffffffffffffffffffffffffffffffffffffff16146106b857600080fd5b600081101580156106c95750606481105b6106d257600080fd5b80600a8190555050565b600047905090565b600860009054906101000a900473ffffffffffffffffffffffffffffffffffffffff1673ffffffffffffffffffffffffffffffffffffffff163373ffffffffffffffffffffffffffffffffffffffff161461073e57600080fd5b60008054906101000a900473ffffffffffffffffffffffffffffffffffffffff1673ffffffffffffffffffffffffffffffffffffffff16635d3b1d30600454600160149054906101000a900467ffffffffffffffff16600560049054906101000a900461ffff16600560009054906101000a900463ffffffff16600560069054906101000a900463ffffffff166040518663ffffffff1660e01b81526004016107eb95949392919061100b565b6020604051808303816000875af115801561080a573d6000803e3d6000fd5b505050506040513d601f19601f8201168201806040525081019061082e9190611073565b600781905550565b60075481565b6006818154811061084c57600080fd5b906000526020600020016000915090505481565b8060069080519060200190610876929190610afe565b5061087f610883565b5050565b6000600660008154811061089a576108996110a0565b5b906000526020600020015490506000600b6000600860149054906101000a900463ffffffff1663ffffffff168152602001908152602001600020600b6000600860149054906101000a900463ffffffff1663ffffffff168152602001908152602001600020805490508361090e91906110fe565b8154811061091f5761091e6110a0565b5b9060005260206000200160009054906101000a900473ffffffffffffffffffffffffffffffffffffffff16905060006064600a544761095e9190610e91565b610968919061112f565b90506000600860009054906101000a900473ffffffffffffffffffffffffffffffffffffffff1673ffffffffffffffffffffffffffffffffffffffff16826040516109b290611191565b60006040518083038185875af1925050503d80600081146109ef576040519150601f19603f3d011682016040523d82523d6000602084013e6109f4565b606091505b5050905080610a0257600080fd5b600047905060008473ffffffffffffffffffffffffffffffffffffffff1682604051610a2d90611191565b60006040518083038185875af1925050503d8060008114610a6a576040519150601f19603f3d011682016040523d82523d6000602084013e610a6f565b606091505b5050905080610a7d57600080fd5b7f0d4a4530afc916d561828722e119ecf73fdc7e42f8daaf32526073b984c252b28583604051610aae929190610f89565b60405180910390a16001600860148282829054906101000a900463ffffffff16610ad891906111a6565b92506101000a81548163ffffffff021916908363ffffffff160217905550505050505050565b828054828255906000526020600020908101928215610b3a579160200282015b82811115610b39578251825591602001919060010190610b1e565b5b509050610b479190610b4b565b5090565b5b80821115610b64576000816000905550600101610b4c565b5090565b6000819050919050565b610b7b81610b68565b82525050565b6000602082019050610b966000830184610b72565b92915050565b6000604051905090565b600080fd5b600080fd5b610bb981610b68565b8114610bc457600080fd5b50565b600081359050610bd681610bb0565b92915050565b600060208284031215610bf257610bf1610ba6565b5b6000610c0084828501610bc7565b91505092915050565b600080fd5b6000601f19601f8301169050919050565b7f4e487b7100000000000000000000000000000000000000000000000000000000600052604160045260246000fd5b610c5782610c0e565b810181811067ffffffffffffffff82111715610c7657610c75610c1f565b5b80604052505050565b6000610c89610b9c565b9050610c958282610c4e565b919050565b600067ffffffffffffffff821115610cb557610cb4610c1f565b5b602082029050602081019050919050565b600080fd5b6000610cde610cd984610c9a565b610c7f565b90508083825260208201905060208402830185811115610d0157610d00610cc6565b5b835b81811015610d2a5780610d168882610bc7565b845260208401935050602081019050610d03565b5050509392505050565b600082601f830112610d4957610d48610c09565b5b8135610d59848260208601610ccb565b91505092915050565b60008060408385031215610d7957610d78610ba6565b5b6000610d8785828601610bc7565b925050602083013567ffffffffffffffff811115610da857610da7610bab565b5b610db485828601610d34565b9150509250929050565b600063ffffffff82169050919050565b610dd781610dbe565b82525050565b6000602082019050610df26000830184610dce565b92915050565b600073ffffffffffffffffffffffffffffffffffffffff82169050919050565b6000610e2382610df8565b9050919050565b610e3381610e18565b82525050565b6000604082019050610e4e6000830185610e2a565b610e5b6020830184610e2a565b9392505050565b7f4e487b7100000000000000000000000000000000000000000000000000000000600052601160045260246000fd5b6000610e9c82610b68565b9150610ea783610b68565b9250817fffffffffffffffffffffffffffffffffffffffffffffffffffffffffffffffff0483118215151615610ee057610edf610e62565b5b828202905092915050565b6000610ef682610b68565b91507fffffffffffffffffffffffffffffffffffffffffffffffffffffffffffffffff8203610f2857610f27610e62565b5b600182019050919050565b6000610f3e82610b68565b9150610f4983610b68565b9250827fffffffffffffffffffffffffffffffffffffffffffffffffffffffffffffffff03821115610f7e57610f7d610e62565b5b828201905092915050565b6000604082019050610f9e6000830185610e2a565b610fab6020830184610b72565b9392505050565b6000819050919050565b610fc581610fb2565b82525050565b600067ffffffffffffffff82169050919050565b610fe881610fcb565b82525050565b600061ffff82169050919050565b61100581610fee565b82525050565b600060a0820190506110206000830188610fbc565b61102d6020830187610fdf565b61103a6040830186610ffc565b6110476060830185610dce565b6110546080830184610dce565b9695505050505050565b60008151905061106d81610bb0565b92915050565b60006020828403121561108957611088610ba6565b5b60006110978482850161105e565b91505092915050565b7f4e487b7100000000000000000000000000000000000000000000000000000000600052603260045260246000fd5b7f4e487b7100000000000000000000000000000000000000000000000000000000600052601260045260246000fd5b600061110982610b68565b915061111483610b68565b925082611124576111236110cf565b5b828206905092915050565b600061113a82610b68565b915061114583610b68565b925082611155576111546110cf565b5b828204905092915050565b600081905092915050565b50565b600061117b600083611160565b91506111868261116b565b600082019050919050565b600061119c8261116e565b9150819050919050565b60006111b182610dbe565b91506111bc83610dbe565b92508263ffffffff038211156111d5576111d4610e62565b5b82820190509291505056fea2646970667358221220c34cba6b87b6ac9d1547a682fb1ca21e2aa0525479461568199c5757fc0447bb64736f6c634300080d0033",
  "immutableReferences": {
    "10": [
      {
        "length": 32,
        "start": 792
      },
      {
        "length": 32,
        "start": 876
      }
    ]
  },
  "source": "//SPDX-License-Identifier: MIT\npragma solidity ^0.8.0;\n\nimport \"./VRFv2Consumer.sol\";\n\ncontract Lottery is VRFv2Consumer {\n    uint32 public currentDraw = 0;\n    uint256 public ticketPrice = 0.0001 ether;\n    uint256 public ownerFeePercentage = 2;\n    mapping(uint256 => address[]) private drawAttendees;\n    mapping(uint256 => mapping(address => uint256))\n        private drawAttendeeTicketsCount;\n\n    event TicketsBought(address buyer, uint256 amount);\n    event WinnerElected(address winner, uint256 earnedAmount);\n\n    constructor() VRFv2Consumer(1587) {}\n\n    function setTicketPrice(uint256 price) external onlyOwner {\n        require(price > 0);\n        ticketPrice = price;\n    }\n\n    function setOwnerFeePercentage(uint256 fee) external onlyOwner {\n        require(fee >= 0 && fee < 100);\n        ownerFeePercentage = fee;\n    }\n\n    function buyTickets(uint256 amount) external payable {\n        require(amount < 20);\n        require(drawAttendeeTicketsCount[currentDraw][msg.sender] <= 40);\n        require(msg.value == amount * ticketPrice);\n        for (uint256 i = 0; i < amount; i++) {\n            drawAttendees[currentDraw].push(msg.sender);\n        }\n        drawAttendeeTicketsCount[currentDraw][msg.sender] += amount;\n        emit TicketsBought(msg.sender, amount);\n    }\n\n    function getOwnerTicketsCount() public view returns (uint256) {\n        return drawAttendeeTicketsCount[currentDraw][msg.sender];\n    }\n\n    function getTotalValue() public view returns (uint256) {\n        return address(this).balance;\n    }\n\n    function designateWinner() internal {\n        uint256 rand = s_randomWords[0];\n        address winner = drawAttendees[currentDraw][\n            rand % drawAttendees[currentDraw].length\n        ];\n        uint256 fee = (address(this).balance * ownerFeePercentage) / 100;\n\n        (bool feeSuccess, ) = s_owner.call{value: fee}(\"\");\n        require(feeSuccess);\n\n        uint256 amount = address(this).balance;\n        (bool success, ) = winner.call{value: amount}(\"\");\n        require(success);\n\n        emit WinnerElected(winner, amount);\n        currentDraw += 1;\n    }\n\n    function fulfillRandomWords(\n        uint256, /* requestId */\n        uint256[] memory randomWords\n    ) internal override {\n        s_randomWords = randomWords;\n        designateWinner();\n    }\n}\n",
  "sourcePath": "/Users/aurelien/workspace/web3-lottery/contracts/Lottery.sol",
  "compiler": {
    "name": "solc",
    "version": "0.8.13+commit.abaa5c0e.Emscripten.clang"
  },
  "schemaVersion": "3.4.6",
  "updatedAt": "2022-04-03T19:35:10.569Z",
  "networkType": "ethereum",
  "devdoc": {
    "kind": "dev",
    "methods": {},
    "version": 1
  },
  "userdoc": {
    "kind": "user",
    "methods": {},
    "version": 1
  }
}