{
  "contractName": "Lottery",
  "abi": [
    {
      "inputs": [],
      "stateMutability": "nonpayable",
      "type": "constructor"
    },
    {
      "inputs": [
        {
          "internalType": "address",
          "name": "have",
          "type": "address"
        },
        {
          "internalType": "address",
          "name": "want",
          "type": "address"
        }
      ],
      "name": "OnlyCoordinatorCanFulfill",
      "type": "error"
    },
    {
      "anonymous": false,
      "inputs": [
        {
          "indexed": false,
          "internalType": "address",
          "name": "buyer",
          "type": "address"
        },
        {
          "indexed": false,
          "internalType": "uint256",
          "name": "amount",
          "type": "uint256"
        }
      ],
      "name": "TicketsBought",
      "type": "event"
    },
    {
      "anonymous": false,
      "inputs": [
        {
          "indexed": false,
          "internalType": "address",
          "name": "winner",
          "type": "address"
        },
        {
          "indexed": false,
          "internalType": "uint256",
          "name": "earnedAmount",
          "type": "uint256"
        }
      ],
      "name": "WinnerElected",
      "type": "event"
    },
    {
      "inputs": [],
      "name": "currentDraw",
      "outputs": [
        {
          "internalType": "uint32",
          "name": "",
          "type": "uint32"
        }
      ],
      "stateMutability": "view",
      "type": "function",
      "constant": true
    },
    {
      "inputs": [],
      "name": "ownerFeePercentage",
      "outputs": [
        {
          "internalType": "uint256",
          "name": "",
          "type": "uint256"
        }
      ],
      "stateMutability": "view",
      "type": "function",
      "constant": true
    },
    {
      "inputs": [
        {
          "internalType": "uint256",
          "name": "requestId",
          "type": "uint256"
        },
        {
          "internalType": "uint256[]",
          "name": "randomWords",
          "type": "uint256[]"
        }
      ],
      "name": "rawFulfillRandomWords",
      "outputs": [],
      "stateMutability": "nonpayable",
      "type": "function"
    },
    {
      "inputs": [],
      "name": "requestRandomWords",
      "outputs": [],
      "stateMutability": "nonpayable",
      "type": "function"
    },
    {
      "inputs": [
        {
          "internalType": "uint256",
          "name": "",
          "type": "uint256"
        }
      ],
      "name": "s_randomWords",
      "outputs": [
        {
          "internalType": "uint256",
          "name": "",
          "type": "uint256"
        }
      ],
      "stateMutability": "view",
      "type": "function",
      "constant": true
    },
    {
      "inputs": [],
      "name": "s_requestId",
      "outputs": [
        {
          "internalType": "uint256",
          "name": "",
          "type": "uint256"
        }
      ],
      "stateMutability": "view",
      "type": "function",
      "constant": true
    },
    {
      "inputs": [],
      "name": "ticketPrice",
      "outputs": [
        {
          "internalType": "uint256",
          "name": "",
          "type": "uint256"
        }
      ],
      "stateMutability": "view",
      "type": "function",
      "constant": true
    },
    {
      "inputs": [
        {
          "internalType": "uint256",
          "name": "",
          "type": "uint256"
        }
      ],
      "name": "winners",
      "outputs": [
        {
          "internalType": "address",
          "name": "addr",
          "type": "address"
        },
        {
          "internalType": "uint256",
          "name": "amount",
          "type": "uint256"
        },
        {
          "internalType": "uint32",
          "name": "draw",
          "type": "uint32"
        },
        {
          "internalType": "uint32",
          "name": "timestamp",
          "type": "uint32"
        }
      ],
      "stateMutability": "view",
      "type": "function",
      "constant": true
    },
    {
      "inputs": [
        {
          "internalType": "uint256",
          "name": "price",
          "type": "uint256"
        }
      ],
      "name": "setTicketPrice",
      "outputs": [],
      "stateMutability": "nonpayable",
      "type": "function"
    },
    {
      "inputs": [
        {
          "internalType": "uint256",
          "name": "fee",
          "type": "uint256"
        }
      ],
      "name": "setOwnerFeePercentage",
      "outputs": [],
      "stateMutability": "nonpayable",
      "type": "function"
    },
    {
      "inputs": [],
      "name": "getWinners",
      "outputs": [
        {
          "components": [
            {
              "internalType": "address",
              "name": "addr",
              "type": "address"
            },
            {
              "internalType": "uint256",
              "name": "amount",
              "type": "uint256"
            },
            {
              "internalType": "uint32",
              "name": "draw",
              "type": "uint32"
            },
            {
              "internalType": "uint32",
              "name": "timestamp",
              "type": "uint32"
            }
          ],
          "internalType": "struct Lottery.Winner[]",
          "name": "",
          "type": "tuple[]"
        }
      ],
      "stateMutability": "view",
      "type": "function",
      "constant": true
    },
    {
      "inputs": [
        {
          "internalType": "uint256",
          "name": "amount",
          "type": "uint256"
        }
      ],
      "name": "buyTickets",
      "outputs": [],
      "stateMutability": "payable",
      "type": "function",
      "payable": true
    },
    {
      "inputs": [],
      "name": "getOwnerTicketsCount",
      "outputs": [
        {
          "internalType": "uint256",
          "name": "",
          "type": "uint256"
        }
      ],
      "stateMutability": "view",
      "type": "function",
      "constant": true
    },
    {
      "inputs": [],
      "name": "getTotalValue",
      "outputs": [
        {
          "internalType": "uint256",
          "name": "",
          "type": "uint256"
        }
      ],
      "stateMutability": "view",
      "type": "function",
      "constant": true
    }
  ],
  "bytecode": "0x60a0604052736168499c0cffcacd319c818142124b7a15e857ab600260006101000a81548173ffffffffffffffffffffffffffffffffffffffff021916908373ffffffffffffffffffffffffffffffffffffffff1602179055507301be23585060835e02b77ef475b0cc51aa1e0709600360006101000a81548173ffffffffffffffffffffffffffffffffffffffff021916908373ffffffffffffffffffffffffffffffffffffffff1602179055507fd89b2bf150e3b9e13446986e571fb9cab24b13cea0a43ea20a6049a85cc807cc60001b600455620f4240600560006101000a81548163ffffffff021916908363ffffffff1602179055506003600560046101000a81548161ffff021916908361ffff1602179055506001600560066101000a81548163ffffffff021916908363ffffffff1602179055506000600860146101000a81548163ffffffff021916908363ffffffff160217905550655af3107a40006009556002600a5534801561017657600080fd5b50610633600260009054906101000a900473ffffffffffffffffffffffffffffffffffffffff168073ffffffffffffffffffffffffffffffffffffffff1660808173ffffffffffffffffffffffffffffffffffffffff168152505050600260009054906101000a900473ffffffffffffffffffffffffffffffffffffffff166000806101000a81548173ffffffffffffffffffffffffffffffffffffffff021916908373ffffffffffffffffffffffffffffffffffffffff160217905550600360009054906101000a900473ffffffffffffffffffffffffffffffffffffffff16600160006101000a81548173ffffffffffffffffffffffffffffffffffffffff021916908373ffffffffffffffffffffffffffffffffffffffff16021790555033600860006101000a81548173ffffffffffffffffffffffffffffffffffffffff021916908373ffffffffffffffffffffffffffffffffffffffff16021790555080600160146101000a81548167ffffffffffffffff021916908367ffffffffffffffff160217905550506080516116fb610324600039600081816103b9015261040d01526116fb6000f3fe6080604052600436106100dd5760003560e01c8063a2fb11751161007f578063df15c37e11610059578063df15c37e14610290578063e0c86289146102bb578063e89e106a146102d2578063f6eaffc8146102fd576100dd565b8063a2fb1175146101fc578063c365a6651461023c578063caa648b414610265576100dd565b80631fe543e3116100bb5780631fe543e3146101615780632f3666371461018a57806389741dc6146101a657806397ba287c146101d1576100dd565b80631209b1f6146100e2578063159816501461010d5780631cb398c214610136575b600080fd5b3480156100ee57600080fd5b506100f761033a565b6040516101049190610ece565b60405180910390f35b34801561011957600080fd5b50610134600480360381019061012f9190610f29565b610340565b005b34801561014257600080fd5b5061014b6103b1565b6040516101589190610ece565b60405180910390f35b34801561016d57600080fd5b50610188600480360381019061018391906110af565b6103b7565b005b6101a4600480360381019061019f9190610f29565b610477565b005b3480156101b257600080fd5b506101bb610679565b6040516101c89190610ece565b60405180910390f35b3480156101dd57600080fd5b506101e66106e9565b6040516101f3919061112a565b60405180910390f35b34801561020857600080fd5b50610223600480360381019061021e9190610f29565b6106ff565b6040516102339493929190611186565b60405180910390f35b34801561024857600080fd5b50610263600480360381019061025e9190610f29565b61077f565b005b34801561027157600080fd5b5061027a6107fd565b6040516102879190610ece565b60405180910390f35b34801561029c57600080fd5b506102a5610805565b6040516102b291906112fc565b60405180910390f35b3480156102c757600080fd5b506102d0610910565b005b3480156102de57600080fd5b506102e7610a62565b6040516102f49190610ece565b60405180910390f35b34801561030957600080fd5b50610324600480360381019061031f9190610f29565b610a68565b6040516103319190610ece565b60405180910390f35b60095481565b600860009054906101000a900473ffffffffffffffffffffffffffffffffffffffff1673ffffffffffffffffffffffffffffffffffffffff163373ffffffffffffffffffffffffffffffffffffffff161461039a57600080fd5b600081116103a757600080fd5b8060098190555050565b600a5481565b7f000000000000000000000000000000000000000000000000000000000000000073ffffffffffffffffffffffffffffffffffffffff163373ffffffffffffffffffffffffffffffffffffffff161461046957337f00000000000000000000000000000000000000000000000000000000000000006040517f1cf993f400000000000000000000000000000000000000000000000000000000815260040161046092919061131e565b60405180910390fd5b6104738282610a8c565b5050565b6014811061048457600080fd5b6028600c6000600860149054906101000a900463ffffffff1663ffffffff16815260200190815260200160002060003373ffffffffffffffffffffffffffffffffffffffff1673ffffffffffffffffffffffffffffffffffffffff1681526020019081526020016000205411156104fa57600080fd5b600954816105089190611376565b341461051357600080fd5b60005b818110156105bd57600b6000600860149054906101000a900463ffffffff1663ffffffff168152602001908152602001600020339080600181540180825580915050600190039060005260206000200160009091909190916101000a81548173ffffffffffffffffffffffffffffffffffffffff021916908373ffffffffffffffffffffffffffffffffffffffff16021790555080806105b5906113d0565b915050610516565b5080600c6000600860149054906101000a900463ffffffff1663ffffffff16815260200190815260200160002060003373ffffffffffffffffffffffffffffffffffffffff1673ffffffffffffffffffffffffffffffffffffffff16815260200190815260200160002060008282546106369190611418565b925050819055507fb24ee662b0a257d0321d324e737d2507fbe45df8af8d0da951f630f3754eb6a0338260405161066e92919061146e565b60405180910390a150565b6000600c6000600860149054906101000a900463ffffffff1663ffffffff16815260200190815260200160002060003373ffffffffffffffffffffffffffffffffffffffff1673ffffffffffffffffffffffffffffffffffffffff16815260200190815260200160002054905090565b600860149054906101000a900463ffffffff1681565b600d818154811061070f57600080fd5b90600052602060002090600302016000915090508060000160009054906101000a900473ffffffffffffffffffffffffffffffffffffffff16908060010154908060020160009054906101000a900463ffffffff16908060020160049054906101000a900463ffffffff16905084565b600860009054906101000a900473ffffffffffffffffffffffffffffffffffffffff1673ffffffffffffffffffffffffffffffffffffffff163373ffffffffffffffffffffffffffffffffffffffff16146107d957600080fd5b600081101580156107ea5750606481105b6107f357600080fd5b80600a8190555050565b600047905090565b6060600d805480602002602001604051908101604052809291908181526020016000905b8282101561090757838290600052602060002090600302016040518060800160405290816000820160009054906101000a900473ffffffffffffffffffffffffffffffffffffffff1673ffffffffffffffffffffffffffffffffffffffff1673ffffffffffffffffffffffffffffffffffffffff168152602001600182015481526020016002820160009054906101000a900463ffffffff1663ffffffff1663ffffffff1681526020016002820160049054906101000a900463ffffffff1663ffffffff1663ffffffff168152505081526020019060010190610829565b50505050905090565b600860009054906101000a900473ffffffffffffffffffffffffffffffffffffffff1673ffffffffffffffffffffffffffffffffffffffff163373ffffffffffffffffffffffffffffffffffffffff161461096a57600080fd5b60008054906101000a900473ffffffffffffffffffffffffffffffffffffffff1673ffffffffffffffffffffffffffffffffffffffff16635d3b1d30600454600160149054906101000a900467ffffffffffffffff16600560049054906101000a900461ffff16600560009054906101000a900463ffffffff16600560069054906101000a900463ffffffff166040518663ffffffff1660e01b8152600401610a179594939291906114f0565b6020604051808303816000875af1158015610a36573d6000803e3d6000fd5b505050506040513d601f19601f82011682018060405250810190610a5a9190611558565b600781905550565b60075481565b60068181548110610a7857600080fd5b906000526020600020016000915090505481565b8060069080519060200190610aa2929190610e4b565b50610aab610aaf565b5050565b60006006600081548110610ac657610ac5611585565b5b906000526020600020015490506000600b6000600860149054906101000a900463ffffffff1663ffffffff168152602001908152602001600020600b6000600860149054906101000a900463ffffffff1663ffffffff1681526020019081526020016000208054905083610b3a91906115e3565b81548110610b4b57610b4a611585565b5b9060005260206000200160009054906101000a900473ffffffffffffffffffffffffffffffffffffffff16905060006064600a5447610b8a9190611376565b610b949190611614565b90506000600860009054906101000a900473ffffffffffffffffffffffffffffffffffffffff1673ffffffffffffffffffffffffffffffffffffffff1682604051610bde90611676565b60006040518083038185875af1925050503d8060008114610c1b576040519150601f19603f3d011682016040523d82523d6000602084013e610c20565b606091505b5050905080610c2e57600080fd5b600047905060008473ffffffffffffffffffffffffffffffffffffffff1682604051610c5990611676565b60006040518083038185875af1925050503d8060008114610c96576040519150601f19603f3d011682016040523d82523d6000602084013e610c9b565b606091505b5050905080610ca957600080fd5b7f0d4a4530afc916d561828722e119ecf73fdc7e42f8daaf32526073b984c252b28583604051610cda92919061146e565b60405180910390a1600d60405180608001604052808773ffffffffffffffffffffffffffffffffffffffff168152602001848152602001600860149054906101000a900463ffffffff1663ffffffff1681526020014263ffffffff16815250908060018154018082558091505060019003906000526020600020906003020160009091909190915060008201518160000160006101000a81548173ffffffffffffffffffffffffffffffffffffffff021916908373ffffffffffffffffffffffffffffffffffffffff1602179055506020820151816001015560408201518160020160006101000a81548163ffffffff021916908363ffffffff16021790555060608201518160020160046101000a81548163ffffffff021916908363ffffffff16021790555050506001600860148282829054906101000a900463ffffffff16610e25919061168b565b92506101000a81548163ffffffff021916908363ffffffff160217905550505050505050565b828054828255906000526020600020908101928215610e87579160200282015b82811115610e86578251825591602001919060010190610e6b565b5b509050610e949190610e98565b5090565b5b80821115610eb1576000816000905550600101610e99565b5090565b6000819050919050565b610ec881610eb5565b82525050565b6000602082019050610ee36000830184610ebf565b92915050565b6000604051905090565b600080fd5b600080fd5b610f0681610eb5565b8114610f1157600080fd5b50565b600081359050610f2381610efd565b92915050565b600060208284031215610f3f57610f3e610ef3565b5b6000610f4d84828501610f14565b91505092915050565b600080fd5b6000601f19601f8301169050919050565b7f4e487b7100000000000000000000000000000000000000000000000000000000600052604160045260246000fd5b610fa482610f5b565b810181811067ffffffffffffffff82111715610fc357610fc2610f6c565b5b80604052505050565b6000610fd6610ee9565b9050610fe28282610f9b565b919050565b600067ffffffffffffffff82111561100257611001610f6c565b5b602082029050602081019050919050565b600080fd5b600061102b61102684610fe7565b610fcc565b9050808382526020820190506020840283018581111561104e5761104d611013565b5b835b8181101561107757806110638882610f14565b845260208401935050602081019050611050565b5050509392505050565b600082601f83011261109657611095610f56565b5b81356110a6848260208601611018565b91505092915050565b600080604083850312156110c6576110c5610ef3565b5b60006110d485828601610f14565b925050602083013567ffffffffffffffff8111156110f5576110f4610ef8565b5b61110185828601611081565b9150509250929050565b600063ffffffff82169050919050565b6111248161110b565b82525050565b600060208201905061113f600083018461111b565b92915050565b600073ffffffffffffffffffffffffffffffffffffffff82169050919050565b600061117082611145565b9050919050565b61118081611165565b82525050565b600060808201905061119b6000830187611177565b6111a86020830186610ebf565b6111b5604083018561111b565b6111c2606083018461111b565b95945050505050565b600081519050919050565b600082825260208201905092915050565b6000819050602082019050919050565b61120081611165565b82525050565b61120f81610eb5565b82525050565b61121e8161110b565b82525050565b60808201600082015161123a60008501826111f7565b50602082015161124d6020850182611206565b5060408201516112606040850182611215565b5060608201516112736060850182611215565b50505050565b60006112858383611224565b60808301905092915050565b6000602082019050919050565b60006112a9826111cb565b6112b381856111d6565b93506112be836111e7565b8060005b838110156112ef5781516112d68882611279565b97506112e183611291565b9250506001810190506112c2565b5085935050505092915050565b60006020820190508181036000830152611316818461129e565b905092915050565b60006040820190506113336000830185611177565b6113406020830184611177565b9392505050565b7f4e487b7100000000000000000000000000000000000000000000000000000000600052601160045260246000fd5b600061138182610eb5565b915061138c83610eb5565b9250817fffffffffffffffffffffffffffffffffffffffffffffffffffffffffffffffff04831182151516156113c5576113c4611347565b5b828202905092915050565b60006113db82610eb5565b91507fffffffffffffffffffffffffffffffffffffffffffffffffffffffffffffffff820361140d5761140c611347565b5b600182019050919050565b600061142382610eb5565b915061142e83610eb5565b9250827fffffffffffffffffffffffffffffffffffffffffffffffffffffffffffffffff0382111561146357611462611347565b5b828201905092915050565b60006040820190506114836000830185611177565b6114906020830184610ebf565b9392505050565b6000819050919050565b6114aa81611497565b82525050565b600067ffffffffffffffff82169050919050565b6114cd816114b0565b82525050565b600061ffff82169050919050565b6114ea816114d3565b82525050565b600060a08201905061150560008301886114a1565b61151260208301876114c4565b61151f60408301866114e1565b61152c606083018561111b565b611539608083018461111b565b9695505050505050565b60008151905061155281610efd565b92915050565b60006020828403121561156e5761156d610ef3565b5b600061157c84828501611543565b91505092915050565b7f4e487b7100000000000000000000000000000000000000000000000000000000600052603260045260246000fd5b7f4e487b7100000000000000000000000000000000000000000000000000000000600052601260045260246000fd5b60006115ee82610eb5565b91506115f983610eb5565b925082611609576116086115b4565b5b828206905092915050565b600061161f82610eb5565b915061162a83610eb5565b92508261163a576116396115b4565b5b828204905092915050565b600081905092915050565b50565b6000611660600083611645565b915061166b82611650565b600082019050919050565b600061168182611653565b9150819050919050565b60006116968261110b565b91506116a18361110b565b92508263ffffffff038211156116ba576116b9611347565b5b82820190509291505056fea2646970667358221220dc502c325d6fee64901f667675716d4bea5d687c03c6500c507cdbf6d749ba6964736f6c634300080d0033",
  "immutableReferences": {
    "10": [
      {
        "length": 32,
        "start": 953
      },
      {
        "length": 32,
        "start": 1037
      }
    ]
  },
  "source": "//SPDX-License-Identifier: MIT\npragma solidity ^0.8.0;\n\nimport \"./VRFv2Consumer.sol\";\n\ncontract Lottery is VRFv2Consumer {\n    uint32 public currentDraw = 0;\n    uint256 public ticketPrice = 0.0001 ether;\n    uint256 public ownerFeePercentage = 2;\n    mapping(uint256 => address[]) private drawAttendees;\n    mapping(uint256 => mapping(address => uint256))\n        private drawAttendeeTicketsCount;\n\n    struct Winner {\n        address addr;\n        uint amount;\n        uint32 draw;\n        uint32 timestamp;\n    }\n\n    Winner[] public winners;\n\n    event TicketsBought(address buyer, uint256 amount);\n    event WinnerElected(address winner, uint256 earnedAmount);\n\n    constructor() VRFv2Consumer(1587) {}\n\n    function setTicketPrice(uint256 price) external onlyOwner {\n        require(price > 0);\n        ticketPrice = price;\n    }\n\n    function setOwnerFeePercentage(uint256 fee) external onlyOwner {\n        require(fee >= 0 && fee < 100);\n        ownerFeePercentage = fee;\n    }\n\n    function getWinners() public view returns (Winner[] memory) {\n        return winners;\n    }\n\n    function buyTickets(uint256 amount) external payable {\n        require(amount < 20);\n        require(drawAttendeeTicketsCount[currentDraw][msg.sender] <= 40);\n        require(msg.value == amount * ticketPrice);\n        for (uint256 i = 0; i < amount; i++) {\n            drawAttendees[currentDraw].push(msg.sender);\n        }\n        drawAttendeeTicketsCount[currentDraw][msg.sender] += amount;\n        emit TicketsBought(msg.sender, amount);\n    }\n\n    function getOwnerTicketsCount() public view returns (uint256) {\n        return drawAttendeeTicketsCount[currentDraw][msg.sender];\n    }\n\n    function getTotalValue() public view returns (uint256) {\n        return address(this).balance;\n    }\n\n    function designateWinner() internal {\n        uint256 rand = s_randomWords[0];\n        address winner = drawAttendees[currentDraw][\n            rand % drawAttendees[currentDraw].length\n        ];\n        uint256 fee = (address(this).balance * ownerFeePercentage) / 100;\n\n        (bool feeSuccess, ) = s_owner.call{value: fee}(\"\");\n        require(feeSuccess);\n\n        uint256 amount = address(this).balance;\n        (bool success, ) = winner.call{value: amount}(\"\");\n        require(success);\n\n        emit WinnerElected(winner, amount);\n        winners.push(\n            Winner(winner, amount, currentDraw, uint32(block.timestamp))\n        );\n        currentDraw += 1;\n    }\n\n    function fulfillRandomWords(\n        uint256, /* requestId */\n        uint256[] memory randomWords\n    ) internal override {\n        s_randomWords = randomWords;\n        designateWinner();\n    }\n}\n",
  "sourcePath": "/Users/aurelien/workspace/web3-lottery/contracts/Lottery.sol",
  "compiler": {
    "name": "solc",
    "version": "0.8.13+commit.abaa5c0e.Emscripten.clang"
  },
  "schemaVersion": "3.4.6",
  "updatedAt": "2022-04-05T13:48:24.974Z",
  "networkType": "ethereum",
  "devdoc": {
    "kind": "dev",
    "methods": {},
    "version": 1
  },
  "userdoc": {
    "kind": "user",
    "methods": {},
    "version": 1
  }
}